:100000000C9494010C94BC010C94BC010C94BC01A4
:100010000C94BC010C94BC010C94BC010C94BC016C
:100020000C94BC010C94BC010C94D9100C94741267
:100030000C94BC010C94BC010C94BC010C94BC014C
:100040000C94BC010C94BC010C94BC010C94BC013C
:100050000C94BC010C94BC010C94BC010C94390AA6
:100060000C94BC010C94D7140C94B1140C94BC01E6
:100070000C94BC010C94BC010C94BC010C94BC010C
:100080000C94BC010C94BC010C94BC010C94BC01FC
:100090000C94BC010C94BC010C94BC010C94BC01EC
:1000A0000C94BC010C94070C0C94BC016D1B791BC7
:1000B0007C1B7F1B821B841B861B891B8C1BF21ADB
:1000C0008E099109800984098A09B209B209B20925
:1000D000950999099D09A309A709B209AD09110D4F
:1000E000110D0E0D130D110D0E0D130D110D0E0D25
:1000F000130D100D100D100D100D100D100D100D15
:100100000E0D130D110D0E0D310D3C0D230D3E0D79
:10011000250D270D290D2B0D2D0D2F0D3B0D3B0D05
:100120003B0D3B0D3B0D3B0D3B0D330D350D370DA1
:10013000390D00000000000000002A2B28000000FC
:1001400000000000000000000000000000000000AF
:1001500000002C9EB4A0A1A2A434A6A7A5AE362D63
:100160003738271E1F20212223242526B333B62EFD
:10017000B7B89F8485868788898A8B8C8D8E8F906F
:100180009192939495969798999A9B9C9D2F313034
:10019000A3AD350405060708090A0B0C0D0E0F1058
:1001A0001112131415161718191A1B1C1DAFB1B014
:1001B000B50000000000240027002A002D003000B8
:1001C00000000000250028002B002E003100000058
:1001D00000002300260029002C002F000404040442
:1001E00004030405020202020403020202020606DC
:1001F00006060606040402020204040408020110B2
:10020000408040102040804080080204018040204F
:100210001002011080102040402000000002000960
:100220000F0000030401000C0000000000000000AB
:10023000000000000000000000080B0002020201A4
:10024000000904000001020200000524001001055D
:10025000240101010424020605240600010705818A
:100260000310004009040100020A00000007050213
:100270000240000007058302400000040309044116
:10028000726475696E6F204C4C43004172647569ED
:100290006E6F204C656F6E6172646F001201000218
:1002A00000000040412336800001010203011201D9
:1002B0000002EF02014041233680000101020301E8
:1002C00005010902A1010901A10085010509190122
:1002D0002903150025019503750181029501750516
:1002E000810305010930093109381581257F750819
:1002F00095038106C0C005010906A1018502050715
:1003000019E029E71500250175019508810295017D
:100310007508810395067508150025650507190000
:1003200029658100C000751F11241FBECFEFDAE0E0
:10033000DEBFCDBF12E0A0E0B1E0E8EBF9E402C01F
:1003400005900D92A030B107D9F728E0A0E0B2E007
:1003500001C01D92AD37B207E1F711E0C4E9D1E069
:1003600004C02197FE010E940221C339D107C9F7B9
:100370000E94E2180C94DA240C9400002F923F9211
:100380004F925F926F927F928F929F92AF92BF92A5
:10039000CF92DF92EF92FF920F931F93CF93DF9351
:1003A000CDB7DEB728970FB6F894DEBF0FBECDBF2E
:1003B000FC018CE393E0938782878091390390E07E
:1003C000958784878091EC0790E097878687809156
:1003D0003503853009F0B7C380913E0390913F0308
:1003E000885891098D35910588F4809139038430BE
:1003F00041F480914003909141038097479708F41E
:1004000007C280913903843408F0E8C18091390330
:100410008A3108F448C080913C0390913D03843FA9
:10042000914050F4118610868FEF9FEFDC0184839A
:100430009583A683B78351C080913E0390913F037B
:1004400085974B9780F512E4E12E13E0F12E82E0C0
:1004500090E040E050E0BA018C010F5F1F4F209107
:10046000390330E0021713076CF497012250310969
:10047000D9012D913C91275031092730310508F4DD
:100480000AC2C801019795958795918780870C9737
:100490001CF41186108607C04483558366837783D6
:1004A00084E090E01CC1809139038A3108F448C08F
:1004B00080913C0390913D038032934008F4B2CF89
:1004C00080913E0390913F03C697869708F403C23C
:1004D00037C044835583668377838BE090E0FFC009
:1004E000D7012D913C91255231092B31310508F06E
:1004F00004C2440F551F661F771F41600296B4E087
:10050000EB0EF11C8C010F5F1F4F2091390330E07F
:100510000217130764F4970122503109D9012D9174
:100520003C912C5031092B303105D0F2C801019794
:1005300095958795918780870C975CF61186108634
:1005400080913903823208F44CC080913E0390912F
:100550003F030697079708F044C042E4C42E43E0E7
:10056000D42E82E090E040E050E0BA018C010F5FB1
:100570001F4F2091390330E0021713070CF5D60105
:100580001297ED90FC9011979D01BEE1EB1AF108D6
:10059000A7E1EA16F10408F0BEC1440F551F661F1B
:1005A000771F4160D6012D913C91B4E0CB0ED11C58
:1005B000235031092530310510F40296D7CFC801F8
:1005C0000197959587959187808740971CF41186B0
:1005D000108607C044835583668377838CE090E060
:1005E0007EC07F011C821B8281E090E09A83898318
:1005F000809139038D3008F475C029E733E0AE01EE
:100600004D5F5F4FBE016F5F7F4FCF010E946E183D
:10061000892B09F067C029E733E0AE014D5F5F4FDA
:10062000BE016F5F7F4FC7010E946E18019709F0EE
:1006300059C029E733E0AE014D5F5F4FBE016F5FE8
:100640007F4FC7010E946E18892B09F04BC0812C87
:10065000912C540100E010E08091390390E0298151
:100660003A81281739077CF529E733E0AE014D5F61
:100670005F4FBE016F5F7F4FC7010E946E186C0114
:1006800029E733E0AE014D5F5F4FBE016F5F7F4FE3
:10069000C7010E946E18E1E0CE16D10449F4892BFF
:1006A00009F5880C991CAA1CBB1C689480F808C02A
:1006B000CD28C1F40197B1F4880C991CAA1CBB1C6D
:1006C0000F5F1F4FC9CFD70119961C930E93189730
:1006D000F70184829582A682B78281E090E09183BF
:1006E000808329C21C821B8281E090E09A838983E7
:1006F000D7011C968D919C911D97181619060CF028
:1007000061C01A96ED91FC911B9782E090E09A836C
:1007100089838281938189974E9708F053C083E043
:1007200090E09A838983848195810B970A9708F0DA
:1007300049C02CEB31E0AE014D5F5F4FBE016F5FF2
:100740007F4FC7010E946E18892BE1F52CEB31E039
:10075000AE014D5F5F4FBE016F5F7F4FC7010E94CB
:100760006E18019779F5412C512C320100E010E010
:1007700029813A81D7011C968D919C911D9728174C
:1007800039070CF010C12CEB31E0AE014D5F5F4F2B
:10079000BE016F5F7F4FC7010E946E185C0103307E
:1007A000110509F0C6C02CEB31E0AE014D5F5F4F83
:1007B000BE016F5F7F4FC7010E946E18A816B90671
:1007C00009F4B7C0D7011A96ED91FC911B9782816D
:1007D0009381C697869708F4F2C03EC1809140038A
:1007E00090914103825491098E9708F00FCE20E03A
:1007F00030E0C12CD12C7601A9014E5B5C4FDA01AF
:100800004D915C91495051094930510598F0FECD08
:1008100080914203909143030997099708F0F1CD25
:10082000118610868FEF9FEFDC0184839583A6836A
:10083000B7838CC1B9016C5B7C4FDB014D915C913E
:100840004751510942315105C0F4D701C601880F03
:10085000991FAA1FBB1F6C017D016894C0F82C5F13
:100860003F4F2038310541F620E230E031872087C4
:10087000C482D582E682F78269C1DB014D915C9129
:10088000465051094730510508F0C0CDCC0CDD1C55
:10089000EE1CFF1CE4CFD7012D913C91235131096F
:1008A0002F30310550F4440F551F661F771F4160EC
:1008B0000296B4E0EB0EF11CCFCDD7012D913C9107
:1008C0002A5031092930310508F0EDCD440F551F6C
:1008D000661F771FEDCF8091400390914103C6972B
:1008E000869708F02DCE84E4E82E83E0F82E83E08E
:1008F00090E040E050E0BA0105CED7012D913C9147
:100900002C5031092A30310508F01ACE440F551FFA
:10091000661F771FF3CDD9012D913C912C503109E1
:100920002B30310508F05DCE440F551F661F771F31
:1009300039CE2CEB31E0AE014D5F5F4FBE016F5FF2
:100940007F4FC7010E946E186C010330110579F4C6
:100950002CEB31E0AE014D5F5F4FBE016F5F7F4F0B
:10096000C7010E946E18C816D90609F02BCFA11432
:10097000B10459F4CA94CD2809F024CF440C551C75
:10098000661C771C689440F80BC0AA94AB2809F049
:1009900019CFCD2809F016CF440C551C661C771CC6
:1009A0000F5F1F4FE5CE19961C930E931897F70112
:1009B000448255826682778282E090E090CE848184
:1009C00095814B97459708F047C0DF0116966F0158
:1009D00026ECC20ED11C20E030E040E050E060E0A8
:1009E00070E080E090E00D911C9111970950110981
:1009F0000830110588F512960D911C91139701513D
:100A000011090D301105D8F401E00E941321216075
:100A10001496AC15BD0539F7F70124833583468359
:100A2000578300E20E942E212283338385E090E0E9
:100A30009183808380E390E0918780877CC01296C9
:100A40000D911C911397045011090530110520F4E4
:100A500001E00E941321DCCF80913903893340F0FB
:100A600082819381895791098335910508F47CC16E
:100A700080913903823209F46CC082819381895755
:100A800091098335910508F4E6C1828193818C54E4
:100A90009109C59708F064C080913903843031F41E
:100AA000848195818097479708F434C280913903F7
:100AB000843408F455C08481958189549109C39781
:100AC00008F04EC09F012A5F3F4FAF014A575F4F6A
:100AD000812C912C5401D9016D917C91695071093F
:100AE00069307105E8F5D90112966D917C911397E3
:100AF000665171096131710508F022C2D501C40146
:100B0000880F991FAA1FBB1F4C015D01689480F8D4
:100B10002C5F3F4F24173507F1F620E230E0F70154
:100B200031872087D70184829582A682B78287E0A9
:100B300090E08D939C9381E090E0BFC282E080932F
:100B400035031092390380E090E0B7C283E090E073
:100B5000C6CD828193810A97099708F460C18DCF31
:100B600080913903863460F1828193810C970B97D1
:100B700008F4F6C125C0D90112966D917C911397A6
:100B80006E5171096731710508F01EC2D501C401AB
:100B9000880F991FAA1FBB1F4C015D01689480F844
:100BA0004E5F5F4F2C5F3F4F4534510509F4F3C151
:100BB000D9016D917C916C5071096B307105D8F23F
:100BC00080913903883578F1828193818558910924
:100BD0008B35910508F408C226C0BC016F5F7F4FBA
:100BE000D8012D913C91275031092730310508F06B
:100BF0000AC2440F551F416002960C5F1F4F20919F
:100C0000390330E024503109821793070CF004C2F5
:100C1000980122503109D9012D913C912950310977
:100C200028303105D0F2809139038032E1F482819D
:100C3000938106970697B8F484819581099709975F
:100C400090F49F012A5F3F4FAF01425C5F4F812CC0
:100C5000912C5401D9016D917C91665071096630D7
:100C6000710508F4F3C1D7011C962D903C901D9797
:100C7000B6E02B1631040CF461CF8F010A5F1F4FD1
:100C800073E0C72ED12CE5EC8E2EEDE99E2EECE123
:100C9000AE2EE1E8BE2EF80160817181349760804C
:100CA000718080E090E00E9473226D837E838F8349
:100CB0009887B30180E090E00E9473222B013C01F1
:100CC0002DEC3CEC4CE45FE30E9425239B01AC013E
:100CD0006D817E818F8198850E94C62187FD19C014
:100CE0002DEC3CEC4CE45FE36D817E818F81988537
:100CF0000E9425239B01AC01C301B2010E94C621C1
:100D0000E82F880FFF0BEE27FF0FEE1FFF2731960E
:100D100002C0E0E0F0E0A501940163E971E080E049
:100D200091E00E949D204F01FF0FAA08BB08862674
:100D30009726A826B926FFEFCF1ADF0A0E5F1F4FAE
:100D4000C214D30409F0A7CFD70114968D929D92B7
:100D5000AD92BC92179780E290E019969C938E9387
:100D600018978FEF9FEFE5CE84819581CA97899779
:100D700008F07ECE9F012A5F3F4F812C912C5401B9
:100D800043E050E0D9016D917C916A50710969305E
:100D9000710508F06DCED90112966D917C91139773
:100DA000665171096131710550F5D501C401880F93
:100DB000991FAA1FBB1F4C015D01689480F84E5F0C
:100DC0005F4F2C5F3F4F4B335105E1F69F012A588F
:100DD0003F4FD9012D913C912A50310929303105DD
:100DE00008F046CE2CE130E0F70131872087D701AB
:100DF00084829582A682B7828AE090E09ACED90159
:100E000012966D917C911397665071096730710548
:100E100008F02ECE880C991CAA1CBB1CD0CF2091A8
:100E20003903CF01820F911D820F911DDC011297B2
:100E30008D919C910A97099708F01FCEF7011186B2
:100E400010868FEF9FEFDC0184839583A683B783A1
:100E500086E090E044CC80913903813208F415CECD
:100E600084819581CA97899708F00FCE9F012A5FE8
:100E70003F4F812C912C540143E050E0D9016D91FA
:100E80007C916A5071096930710508F0FECDD90175
:100E900012966D917C9113976651710961317105BC
:100EA00070F112966D917C911397665071096730BD
:100EB000710508F0EACD880C991CAA1CBB1C4E5F7A
:100EC0005F4F2C5F3F4F43325105C1F69F012A5BB4
:100ED0003F4FD9012D913C912A50310929303105DC
:100EE00008F0D3CD20E130E0F70131872087D7012A
:100EF00084829582A682B78286E090E01ACED501E0
:100F0000C401880F991FAA1FBB1F4C015D01689483
:100F100080F8D5CF868197810997099708F0C6CDCB
:100F2000D70119961C921E9218978FEF9FEFDC0144
:100F3000F70184839583A683B78387E090E0CFCBC6
:100F4000D90112966D917C911397665071096730A3
:100F5000710508F005CE880C991CAA1CBB1CD8CDC5
:100F6000848195810997099708F02ACE8681978117
:100F70008C974F9708F024CE8085918589974D975F
:100F800008F01ECE9F01265F3F4F812C912C54010B
:100F900045E050E00DCE9F0126573F4FD9012D91DE
:100FA0003C912C5031092B30310508F009CE20E25C
:100FB00030E0F70131872087D70184829582A682AD
:100FC000B78288E090E0B5CDD90112966D917C9101
:100FD0001397695071096930710508F0F1CD880CDB
:100FE000991CAA1CBB1CDCCD84819581825491097B
:100FF0008E9708F018CE8F01045C1F4F8DE190E0B2
:1010000040E050E0FCCDD8012D913C9128513109B0
:1010100022313105C0F0CB01019795958795D70115
:1010200019969C938E9318978A970CF4FCCD052EF5
:10103000000C660B770BF701448355836683778337
:1010400089E090E04CCB440F551FD6CDD9011296C4
:101050006D917C9113976951710963317105E8F4C1
:10106000D501C401880F991FAA1FBB1F4C015D0148
:10107000689480F82C5F3F4F2417350709F0EACDBC
:101080002EE030E0F70131872087D70184829582F6
:10109000A682B7828FE090E04CCDD90112966D9177
:1010A0007C911397695071096930710508F0DBCDA7
:1010B000880C991CAA1CBB1CDDCF28960FB6F8948F
:1010C000DEBF0FBECDBFDF91CF911F910F91FF907B
:1010D000EF90DF90CF90BF90AF909F908F907F90D8
:1010E0006F905F904F903F902F9008953FB7F89486
:1010F0008091220290912302A0912402B0912502B6
:1011000026B5A89B05C02F3F19F00196A11DB11D62
:101110003FBFBA2FA92F982F8827820F911DA11D9D
:10112000B11DBC01CD0142E0660F771F881F991FDA
:101130004A95D1F70895DC01FB0112968C91129724
:1011400090E02481358182179307D1F491818081C9
:10115000813A31F481E0913091F0933089F411C0FB
:10116000813271F49B3021F482811F968C9305C0EB
:101170009A3031F4828150968C9381E008950895DD
:1011800080E00895DC01FB0188E4808389E48183A9
:1011900084E482831D969C911D979F709F5B93832F
:1011A0001D968D919C911E9724E0969587952A9582
:1011B000E1F78F708F5B848385E00895FC01828165
:1011C0008F5BFB01808381E00895EF92FF920F9384
:1011D0001F93CF93DF93FB012081213851F52381A9
:1011E000223239F5DC0112962C9130E04481558190
:1011F00042175307F1F4EC010B851C85E12CF12C0F
:101200000115110591F0F8014481558162817381C6
:1012100080E80E944B118F3FFFEF9F0769F0E80EB7
:10122000F91ED8010D911C91EBCF81E08F87C7018A
:1012300005C080E090E002C08FEF9FEFDF91CF917B
:101240001F910F91FF90EF900895CF93DF93CDB74B
:10125000DEB769970FB6F894DEBF0FBECDBFFC01B5
:10126000DB018C918F5F8C93BE016F5F7F4F89E1B3
:10127000DB011D928A95E9F729E0298384E08A83BE
:1012800091E09D8383E08E832A8721E22B879C87D0
:101290009D879F8722E2288B27E02B8B25E02C8BD4
:1012A0008E8B20E430E0388F2F8B998F82818B8357
:1012B00095858685998B8A8B838180688D8B49E1A2
:1012C00050E080E00E944B1169960FB6F894DEBFA3
:1012D0000FBECDBFDF91CF910895862F0C940915D5
:1012E000862F642F0C9432150C94CC2490E0FC01D2
:1012F0003197EF30F105B0F5E05AFF4F0C94022121
:10130000809180008F7703C0809180008F7D8093D3
:101310008000089580918000877FF9CF84B58F7712
:1013200002C084B58F7D84BD0895809190008F7731
:1013300007C0809190008F7D03C080919000877FCF
:101340008093900008958091C0008F7703C08091B2
:10135000C0008F7D8093C00008958091C200877F78
:101360008093C2000895CF93DF9390E0FC01E55095
:10137000FE4F2491FC01E452FE4F8491882361F1D9
:1013800090E0880F991FFC01EE54FE4FC591D49157
:10139000FC01E054FE4FA591B491611109C09FB7C3
:1013A000F8948881209582238883EC912E230BC0AA
:1013B000623061F49FB7F8943881822F809583233F
:1013C0008883EC912E2B2C939FBF06C08FB7F89487
:1013D000E8812E2B28838FBFDF91CF910895862F30
:1013E000642F0C94B3098F929F92AF92BF92CF92C9
:1013F000DF92EF92FF926B017C010E9476084B0115
:101400005C01C114D104E104F104F1F00E947608FA
:10141000DC01CB0188199909AA09BB09883E9340D0
:10142000A105B10570F321E0C21AD108E108F10865
:1014300088EE880E83E0981EA11CB11CC114D10453
:10144000E104F10419F7DDCFFF90EF90DF90CF902A
:10145000BF90AF909F908F9008952FB7F8946091B0
:101460001E0270911F0280912002909121022FBFD5
:1014700008951F920F920FB60F9211242F933F934E
:101480008F939F93AF93BF9380911E0290911F0201
:10149000A0912002B091210230911D0223E0230F80
:1014A0002D3720F40196A11DB11D05C026E8230F9C
:1014B0000296A11DB11D20931D0280931E029093E0
:1014C0001F02A0932002B0932102809122029091EA
:1014D0002302A0912402B09125020196A11DB11D05
:1014E0008093220290932302A0932402B0932502BA
:1014F000BF91AF919F918F913F912F910F900FBE10
:101500000F901F901895AF92BF92CF92DF92EF92FB
:10151000FF920F931F93CF93DF931F92CDB7DEB748
:101520007C0169836A01590141E050E0BE016F5FAF
:101530007F4FFC0183810E9472118C0197FD0BC0CB
:10154000F7018381A501B60180640E94721197FDA5
:1015500002C0800F911F0F90DF91CF911F910F91CB
:10156000FF90EF90DF90CF90BF90AF900895809163
:10157000150281116BC081E08093080280930902FB
:101580002EE032E030930B0220930A0210920D02FB
:1015900010920C022DE131E03093050220930402F9
:1015A0001092100210920F02109212021092110269
:1015B000809313028093140281EC80930E020E94A8
:1015C0002E12FC0121818091080290E0820F911D72
:1015D000089724F081E08093150238C0A281B3817E
:1015E000109729F484E092E0938382830EC01896CA
:1015F0008D919C911997009711F0DC01F8CF84E050
:1016000092E019969C938E9318978081809306029E
:10161000818180930702908180910902890F8083E4
:1016200080E0909108028917A8F6A0910A02B09173
:101630000B02A80FB11D9C91A181B0E0A050BF4F3B
:101640009C9391819F5F91838F5FEBCF84E092E0C9
:101650000895CF93DF93EB010E94B70A28E030E0B2
:10166000AE0162E0DF91CF910C94830AEF92FF927A
:101670001F93CF93DF93EC01162F683818F0E8E73B
:10168000E60F23C0E62FF0E067FF0DC0E058F10938
:1016900081E090E001C0880FEA95EAF79C81892BF0
:1016A0008C83E0E012C0EE5CFE4FE491E11107C0D4
:1016B00081E090E09B838A83E12CF12C3EC0E7FF20
:1016C00004C08C8182608C83EF778E818E1739F114
:1016D0008F818E1721F188858E1709F189858E17E4
:1016E000F1F08A858E17D9F08B858E17C1F0DE0157
:1016F000169680E090E02D91211106C0DE01A80F22
:10170000B91F1696EC930BC001968630910599F798
:1017100081E090E09B838A83E12CF12C09C0BE011B
:101720006C5F7F4FCE010E94290BEE24E394F12CD5
:10173000183818F0E8E7E10F1DC0E12FF0E017FFBF
:101740000EC0E058F10921E030E001C0220FEA9517
:10175000EAF720958C8128232C83E0E00BC0EE5C17
:10176000FE4FE491EE23C9F0E7FF04C08C818D7F2A
:101770008C83EF77DE01169686E0EE2321F09C91B4
:101780009E1301C01C92815011968111F6CFBE01AB
:101790006C5F7F4FCE010E94290BC701DF91CF9173
:1017A0001F91FF90EF9008958F929F92AF92BF92FA
:1017B000CF92DF92EF92FF926B017C010E9476083C
:1017C0004B015C0184E0C81AD108E108F108C80C9B
:1017D000D91CEA1CFB1CC814D904EA04FB0438F425
:1017E0000E94760886169706A806B906C8F30E94D6
:1017F00076086C157D058E059F05C8F3FF90EF9068
:10180000DF90CF90BF90AF909F908F9008951F92E0
:101810000F920FB60F9211242F933F934F935F9324
:101820006F937F938F939F93AF93BF93EF93FF93A8
:10183000809136030E94091520913A0330913B03B1
:101840002F5F3F4F30933B0320933A03909139032E
:10185000909135039430C9F128F4923069F09330B7
:10186000D1F05EC0953009F451C0963009F058C0EF
:1018700091E09093EC0751C0811152C020913A033E
:1018800030913B032436310508F442C01092EC0736
:10189000109239031CC0813009F042C0E091390335
:1018A00091E09E0F90933903F0E020913A0330913C
:1018B0003B03EE0FFF1FEB5CFC4F3087278310923A
:1018C0003B0310923A0394E029C0811117C0E091C4
:1018D000390391E09E0F90933903F0E020913A0391
:1018E00030913B03EE0FFF1FEB5CFC4F30872783EB
:1018F00010923B0310923A0393E010C020913A03F8
:1019000030913B032536310558F007C0811108C0DE
:1019100010923B0310923A0303C095E09093350375
:10192000909138039923B9F081110AC0809137034F
:10193000882321F08091370361E009C02D9A0BC004
:1019400080913703882331F08091370360E00E9453
:10195000321501C02D98FF91EF91BF91AF919F91EA
:101960008F917F916F915F914F913F912F910F9048
:101970000FBE0F901F901895CF92DF92EF92FF92BB
:10198000CF93DF93EC01072E000C880B990B0E947C
:1019900075226B017C0120E030E040E45FE30E94AF
:1019A000252320E030E048E452E40E94CB210E944D
:1019B0003D22C617D707D4F020E030E040EA5FE3CD
:1019C000C701B6010E94252320E030E048E452E43C
:1019D0000E94CB2120E030E040E85FE30E945A21E2
:1019E0000E943D2221E06C177D070CF420E0822F3D
:1019F00090E0DF91CF91FF90EF90DF90CF9008952E
:101A0000082E000C990BAA0BBB0BFC01F097E531DB
:101A1000F10530F4E159FF4F0C94022184EF089551
:101A200008958AEF08958EEE0895082E000C990B04
:101A3000AA0BBB0BFC01F097E531F105E0F4EC5784
:101A4000FF4F0C94022186E0089582E1089588E119
:101A500008958EE1089584E208958AE2089580E36E
:101A6000089586E308958CE3089582E4089588E458
:101A700008958EE40895089580E008958CE0089517
:101A8000BF92CF92DF92EF92FF920F931F93CF936B
:101A9000DF9300D000D0CDB7DEB78C01CE01019628
:101AA0007C016E0195E0C90ED11CC8010E94C424BE
:101AB000B82EF70181937F0189EB91E00E945618BF
:101AC0006B2D70E080E090E04AE00E94D21786EC37
:101AD00091E00E945618C8010E943C180F5F1F4FEA
:101AE000EC14FD0411F769817A818B819C810F9040
:101AF0000F900F900F90DF91CF911F910F91FF905A
:101B0000EF90DF90CF90BF9008959F92AF92BF92D9
:101B1000CF92DF92EF92FF920F931F93CF93DF93B9
:101B200000D000D0CDB7DEB749835A836B837C8366
:101B30008E010F5F1F4F6C01C01AD10A7E0185E034
:101B4000E80EF11C5801AC0CBD1CF80191908F01FE
:101B5000692DC5010E94740988ED91E00E94561814
:101B6000692D70E080E090E04AE00E94D21786EE96
:101B700091E00E945618C5010E943C180E151F05E1
:101B800009F70F900F900F900F90DF91CF911F9159
:101B90000F91FF90EF90DF90CF90BF90AF909F900C
:101BA00008956115710579F0FB0101900020E9F7B6
:101BB0003197AF01461B570BDC01ED91FC91028080
:101BC000F381E02D099480E090E008958F929F9238
:101BD000AF92BF92CF92DF92EF92FF920F931F933B
:101BE000CF93DF93CDB7DEB760970FB6F894DEBF23
:101BF0000FBECDBFE82E8BEE91E00E945B18DD2476
:101C0000D394D09259080E942D0A0091490810914E
:101C10004A0820914B0830914C084B015C01801A16
:101C2000910AA20AB30A409155085091560860E003
:101C300070E0481559056A057B0518F70E94E31501
:101C40000E947A16182F0E942D0A609349087093FB
:101C50004A0880934B0890934C08112391F280918D
:101C60000E08882371F280910C0890910D0801975D
:101C700041F6F0900908FF2021F28DEE91E00E94DC
:101C80005B188F2D0E94150D082F8FEE91E00E949A
:101C90005B180E94AD17CE0101960E94BE01892BF0
:101CA00039F46AE070E080E090E00E94F309F3CF3D
:101CB000EE2009F44BC081EF91E00E945B1810E028
:101CC0006D85C8010E94740964E6C80101960E94EE
:101CD0007409AD84BE84CB84DC848F2D0E94000DFA
:101CE000082F10E0AA0CBB1C760123E0E20EF11CC9
:101CF00042E0C42ED12CCA14DB0424F5C0FC1BC066
:101D0000F70162914F01C8010E94740988ED91E0CA
:101D10000E945618F401608170E080E090E04AE093
:101D20000E94D21786EE91E00E945618C8010E94C8
:101D30003C180F5F1F4FFFEFCF1ADF0A2FEFE21A99
:101D4000F20AD9CFC12CD12C76014AC085EF91E09F
:101D50000E945B1889819A81019609F466C010E09F
:101D60006985C8010E94740987EF91E00E945B18A1
:101D70004D815E816F817885C80102960E94850D34
:101D800085EB91E00E945B186981C80101960E9471
:101D9000740989EF91E00E945B188D859E850E94F1
:101DA0003C1800E010E08D859E8501970817190703
:101DB0004CF6C801880F991FEB85FC85E80FF91FC9
:101DC0006081718180E090E04AE00E94D2176BEF61
:101DD00071E088ED92E00E94D10D0F5F1F4FE3CFBD
:101DE000C6010E94C424182F4AE0C701B6010E9410
:101DF000D2178EEF91E00E945618612F70E080E0BC
:101E000090E04AE00E94D2176BEF71E088ED92E01B
:101E10000E94D10DFFEFCF1ADF0AEF0AFF0A26E971
:101E2000C216D104E104F104D9F660960FB6F89415
:101E3000DEBF0FBECDBFDF91CF911F910F91FF90FD
:101E4000EF90DF90CF90BF90AF909F908F900895CC
:101E50004091350250913602209133023091340284
:101E600042175307B4F49091E8009570E1F3909114
:101E7000E80092FD19C08093F100809135029091A5
:101E8000360201968F739927892B19F48EEF809370
:101E9000E8008091350290913602019690933602C7
:101EA0008093350281E0089580E00895615030F01C
:101EB0002091F100FC0120830196F8CF289884E658
:101EC000809338020895CF92DF92EF92FF920F93A2
:101ED0001F93CF93DF936C017A018B01C0E0D0E0B8
:101EE000CE15DF0589F0D8016D918D01D601ED91F8
:101EF000FC910190F081E02DC6010995892B11F428
:101F00007E0102C02196ECCFC701DF91CF911F91D6
:101F10000F91FF90EF90DF90CF900895FC01918D8D
:101F2000828D981761F0828DDF01A80FB11D5D963B
:101F30008C91928D9F5F9F73928F90E008958FEFA9
:101F40009FEF0895FC01918D828D981731F0828D5D
:101F5000E80FF11D858D90E008958FEF9FEF0895B4
:101F6000FC01918D228D892F90E0805C9F4F821B18
:101F700091098F73992708958BE392E00E94B00F27
:101F800021E0892B09F420E0822F0895FC01848D43
:101F9000DF01A80FB11DA35ABF4F2C91848D90E093
:101FA00001968F739927848FA689B7892C93A0896E
:101FB000B1898C9180648C93938D848D981306C025
:101FC0000288F389E02D80818F7D80830895EF92D0
:101FD000FF920F931F93CF93DF93EC0181E0888FE3
:101FE0009B8D8C8D981305C0E889F989808185FDCA
:101FF00024C0F62E0B8D10E00F5F1F4F0F731127BB
:10200000E02E8C8DE8120CC00FB607FCFACFE889E1
:10201000F989808185FFF5CFCE010E94C60FF1CFEF
:102020008B8DFE01E80FF11DE35AFF4FF0820B8FFD
:10203000EA89FB898081806207C0EE89FF8960831D
:10204000E889F98980818064808381E090E0DF9174
:10205000CF911F910F91FF90EF900895CF93DF9351
:10206000EC01888D8823C9F0EA89FB89808185FD90
:1020700005C0A889B9898C9186FD0FC00FB607FCF1
:10208000F5CF808185FFF2CFA889B9898C9185FF32
:10209000EDCFCE010E94C60FE7CFDF91CF9108951B
:1020A00080E090E0892B29F00E94BC0F81110C94F4
:1020B00000000895CF93DF931F92CDB7DEB76983F9
:1020C000DC01ED91FC910280F381E02D41E050E0D4
:1020D000BE016F5F7F4F09950F90DF91CF910895FB
:1020E00083E08093E9008091F200882319F08AE36D
:1020F0008093E8000895FC018485958597FD0BC0C9
:102100009FB7F89482E08093E9008091F2009FBF2E
:1021100090E0019608959FB7F89482E08093E900DB
:102120008091F2009FBF90E008950E94BF240F931A
:102130001F93CF93DF931F92CDB7DEB78C01FC01C5
:102140008485958597FF0EC0CE0101960E94831766
:10215000019719F4298130E002C02FEF3FEFF80119
:1021600035872487F801848595850F90DF91CF917D
:102170001F910F910895CF93DF931F92CDB7DEB7D4
:10218000FC018485958597FD05C02FEF3FEF3587CE
:1021900024870BC0CE0101960E948317019719F482
:1021A000898190E002C08FEF9FEF0F90DF91CF9178
:1021B00008951F920F920FB60F9211248F939F9341
:1021C0008091E1009091E100937F9093E10083FF83
:1021D0000FC01092E90091E09093EB001092EC0098
:1021E00092E39093ED001092390298E09093F00002
:1021F00082FF20C093E09093E9009091F200992330
:1022000019F09AE39093E80090913702992339F0FE
:1022100090913702915090933702992389F19091D0
:102220003802992339F090913802915090933802F6
:10223000992341F184FF10C08091E2008E7E81607D
:102240008093E2008091E1008F7E8093E100809195
:1022500001028E7E806111C080FF16C08091E20075
:102260008E7E80618093E2008091E1008E7E80937B
:10227000E100809101028E7E81608093010204C0A2
:102280005D9ACDCF289AD6CF9F918F910F900FBE98
:102290000F901F901895DF92EF92FF920F931F936C
:1022A000CF93DF93D82E8A017B01E40EF51EEB015C
:1022B000CE15DF0571F0D7FE03C0FE01849101C089
:1022C00088810E94280F21968111F2CF8FEF9FEF16
:1022D00001C0C801DF91CF911F910F91FF90EF9046
:1022E000DF9008958F929F92AF92BF92CF92DF922C
:1022F000EF92FF920F931F93CF93DF9300D01F9223
:10230000CDB7DEB7382F8B0180913902811103C020
:102310008FEF9FEF7DC08091010280FF05C080910B
:10232000E00082608093E0004A018AEFF82E832F5C
:102330008770E82E9FE3C92E832F8072B82E2AE380
:10234000D22E832F8074A82E8114910409F457C0D3
:102350008FB7F894E092E9009091E80095FF05C0EE
:102360009091F2002C2D291B01C020E08FBF21117C
:1023700010C0FA94FF2061F261E070E080E090E02C
:1023800039834A835B830E94F30939814A815B81E7
:10239000DBCF822F90E0881699060CF4282D6FB7BA
:1023A000F894E092E9008091E80085FF26C0822F32
:1023B00090E0881A990ABB2029F02150A8F01092C9
:1023C000F100FBCFF80137FF07C0215058F074919E
:1023D0007093F1003196F9CF215020F071917093F4
:1023E000F100FACF080F191F8091E80085FF0DC09A
:1023F0008114910411F4A11008C06FBFA5CF5D989E
:1024000084E680933702CA0103C0D092E800F5CF7A
:102410000F900F900F90DF91CF911F910F91FF9030
:10242000EF90DF90CF90BF90AF909F908F900895E6
:10243000CF93DF93EC0180911201882331F083E088
:102440000E9472111816190634F081E090E09B8307
:102450008A8380E090E0DF91CF91089580912A02F5
:1024600081110DC082E08093260284E080932702D0
:10247000109229021092280281E080932A0286E2BB
:1024800092E008950F931F93CF93DF931F92CDB7E0
:10249000DEB782E0898342E450E069E372E080E8DD
:1024A0000E944B110E942E12DC0112960D911C917C
:1024B00013970115110569F0D801ED91FC91028087
:1024C000F381E02DBE016F5F7F4FC801099597FF33
:1024D00007C089810F90DF91CF911F910F910895CF
:1024E000F80100851185E5CF1F920F920FB60F926C
:1024F0001124CF92DF92EF92FF920F931F932F93AD
:102500003F934F935F936F937F938F939F93AF937B
:10251000BF93EF93FF93CF93DF93CDB7DEB76C9765
:10252000DEBFCDBF1092E9008091E80083FFFAC1C1
:1025300068E0CE0145960E94560F82EF8093E80036
:102540008D8987FF05C09091E80090FFFCCF03C004
:102550009EEF9093E800982F907609F0C6C09E8970
:102560002F89188D91110CC0803829F480910202B6
:102570008093F10002C01092F1001092F10047C167
:10258000422F50E0512B913051F4811140C1413024
:10259000510509F03CC1809102028D7F0BC0933040
:1025A00061F4811134C14130510509F030C180918D
:1025B00002028260809302022AC1953041F4809128
:1025C000E80080FFFCCF20682093E30020C1963014
:1025D00009F05FC0EB8CFC8C1092E900109236027F
:1025E00010923502123091F510923402109233029B
:1025F0000E94421299E0BE016F5F7F4FDB01E92F1D
:102600001D92EA95E9F799831A8391E09E8390EAF7
:1026100098879AEF99872091350230913602275F8B
:102620003F4F3C832B838D831092E900109236023A
:1026300010923502F0923402E092330249E050E009
:1026400080E00E944B110E944212E1C0F0923402DD
:10265000E09233020E942E12DC011296ED90FC9063
:102660001397E114F10409F4C0C0D701ED91FC9176
:102670000480F581E02DBE016B5E7F4FC701099597
:10268000009719F00CF0C3C0C6C0F701E084F184D4
:10269000E8CF973009F4BFC0983021F481E08093EF
:1026A000F100B5C0993009F0B2C0837009F0B3C031
:1026B000E1E0F1E081E021E036E39081992361F0EF
:1026C0008093E9002093EB0091919093EC0030937C
:1026D000ED008F5F873089F78EE78093EA001092D4
:1026E000EA008F898093390292C08B8D9C8D109265
:1026F000E9001092360210923502909334028093D2
:102700003302898D811156C08E899D89913A59F481
:10271000813209F080C047E050E06BE071E080E07A
:102720000E944B1174C0913209F075C0833289F454
:10273000888D90E0982F88272F89822BA0E0B0E029
:102740008093070190930801A0930901B0930A01B7
:102750005EC0803269F48091E80082FFFCCF67E0C0
:102760008BE091E00E94560F8BEF8093E80006C04B
:10277000823209F04CC08F8980931201809100024F
:10278000882319F0EEEFFAE002C0E0E0F8E0809173
:102790000B0190910C01A0910D01B0910E01803BB5
:1027A0009440A105B10509F088C08091120180FF15
:1027B000A0C083C00E942E12DC0112960D911C91C4
:1027C00013970115110539F1D801ED91FC91019094
:1027D000F081E02DBE016B5E7F4FC801099581112C
:1027E00016C0F80100851185ECCF1130C1F013300F
:1027F00091F48F89882309F455C08230E9F440E8C8
:1028000060E18BE892E00E94381F882321F08EEF70
:102810008093E80087C081E28093EB0083C08B8DBA
:102820009C8D089711F4109332028091320281112D
:1028300036C06CE972E038C0813029F440E86BE0C2
:102840008FE792E0E0CF833031F70E942E12DC0157
:102850001296ED90FC9013978E010F5F1F4F680149
:10286000E114F10479F0D701ED91FC910680F78134
:10287000E02DB801C7010995080F111DF701E0848B
:10288000F184EECFD8011C92F60101900020E9F707
:102890003197BF016C197D0940E0C601B4CF6EEAE3
:1028A00072E002C06BE772E06115710509F4B3CF05
:1028B000FB01449150E080E833CF0FB6F894A8951F
:1028C00080916000886180936000109260000FBE6C
:1028D000A895EE3F2AE0F20739F08091FE0A909128
:1028E000FF0A9183808393CF1092FF0A1092FE0A11
:1028F0008ECFEE3F8AE0F80731F08081918190938E
:10290000FF0A8093FE0A87E797E7918380839BE025
:1029100088E10FB6F894A895809360000FBE90935D
:10292000600075CF6C960FB6F894DEBF0FBECDBFBA
:10293000DF91CF91FF91EF91BF91AF919F918F91D7
:102940007F916F915F914F913F912F911F910F91C7
:10295000FF90EF90DF90CF900F900FBE0F901F90E1
:1029600018951F920F920FB60F9211242F933F9339
:102970004F935F936F937F938F939F93AF93BF9387
:10298000EF93FF938BE392E00E94C60FFF91EF91CC
:10299000BF91AF919F918F917F916F915F914F9177
:1029A0003F912F910F900FBE0F901F9018951F927F
:1029B0000F920FB60F9211242F938F939F93EF9343
:1029C000FF93E0914B02F0914C028081E091510223
:1029D000F091520282FD12C09081809154028F5F6B
:1029E0008F7320915502821751F0E0915402F0E06C
:1029F000E55CFD4F958F8093540201C08081FF916B
:102A0000EF919F918F912F910F900FBE0F901F907C
:102A10001895CF93DF93282F30E0F901E65EFD4F44
:102A20008491F901E550FE4FD491F901E452FE4F33
:102A3000C491CC2391F081110E947609EC2FF0E033
:102A4000EE0FFF1FE253FE4FA591B491EC91ED23E1
:102A500081E090E021F480E002C080E090E0DF912E
:102A6000CF9108951F93CF93DF93282F30E0F90182
:102A7000E65EFD4F8491F901E550FE4FD491F901D6
:102A8000E452FE4FC491CC23C9F0162F81110E944D
:102A90007609EC2FF0E0EE0FFF1FE054FE4FA591FA
:102AA000B4918FB7F894111105C09C91ED2FE0956A
:102AB000E92302C0EC91ED2BEC938FBFDF91CF9116
:102AC0001F91089596E0899FD0011124A351B84F1A
:102AD00090967C936E935F9791E091969C939197DB
:102AE00090915908E0915A08F0915B08992339F0C8
:102AF000309751F0811108C08091090804C03097C7
:102B000019F05C968C91099408950F931F93CF93BD
:102B1000DF93C82FD62F86E0C89FF0011124E35120
:102B2000F84F11A2878D90A181309105F1F01CF42E
:102B3000892B49F043C082309105A9F10397F1F543
:102B400060E070E034C06623C9F161E070E08C2F72
:102B50000E9462150E942D0A6093450870934608F2
:102B6000809347089093480829C00E942D0A00913D
:102B70004508109146082091470830914808AB015C
:102B8000BC01401B510B620B730B80915708909155
:102B90005808A0E0B0E084179507A607B70718F417
:102BA00062E070E004C0D11109C063E070E08C2FD6
:102BB000DF91CF911F910F910C946215DF91CF910E
:102BC0001F910F9108956F927F928F929F92AF9273
:102BD000BF92CF92DF92EF92FF920F931F93CF930A
:102BE000DF93C0E080915308C81760F4E0914F086C
:102BF000F0915008EC0FF11D62E080810E94B30952
:102C0000CF5FF0CF712C812C912C54018394809153
:102C10005408781608F05FC0072D10E0E0915108C5
:102C2000F0915208E00FF11F61E080810E94B3092A
:102C3000E0915108F0915208E00FF11F60E08081AF
:102C40000E943215D501C401072C04C0880F991FBA
:102C5000AA1FBB1F0A94D2F76C017C01E094F09488
:102C6000612C809153086816F8F4C62DD0E0E091ED
:102C70004F08F0915008EC0FFD1F80810E9409154C
:102C80002496CC0FDD1FC351D84F892B29F488819E
:102C900099818C299D2904C0888199818E219F2149
:102CA000998388836394DDCFE0915108F0915208B5
:102CB000E00FF11F61E080810E9432158091510880
:102CC00090915208FC01E00FF11F60E080810E94AA
:102CD000B30973949CCFDF91CF911F910F91FF9017
:102CE000EF90DF90CF90BF90AF909F908F907F90AC
:102CF0006F900895FF920F931F93CF93DF93E9E0B6
:102D0000F8E08FEF9FEF23813481232B21F4108291
:102D1000928381831582369628E0E534F20799F78D
:102D200010E096E0F92E80915308181708F052C071
:102D300000E0C12FD0E0CC0FDD1FCB50D84F209149
:102D40005408021708F044C068817981002E02C03F
:102D5000769567950A94E2F761707727129F900144
:102D60001124200F311DE0914D08F0914E08E20F23
:102D7000F31F4081EDEEF7E080E0A58DB68DA21740
:102D8000B30711F461701AC08F5F36968A30A9F7C5
:102D9000672BE1F0E9E0F8E080E090E0508151112C
:102DA00010C0F89EF001F99EF00D1124E351F84F88
:102DB000448F368F258F10A2178E61E00E948515F3
:102DC00005C0019636968A30910541F70F5FB7CF5F
:102DD0001F5FA9CF20E030E080E0F901E351F84F18
:102DE00091A1911181E02A5F3F4F2C333105A9F762
:102DF000DF91CF911F910F91FF900895CF93DF93B3
:102E000040E10E94D217EC016BEF71E088ED92E097
:102E10000E94D10D8C0F9D1FDF91CF9108952091BD
:102E2000C0002F772093C000009751F0BC0180E0D4
:102E300090E0653071058105910510F00C94D40B7C
:102E400008952091C00020682093C000009751F0A1
:102E5000BC0180E090E0653071058105910510F0BE
:102E60000C94D40B0895CF93DF93EC011092720071
:102E700061E08DE00E94B30960E08DE00E943215B0
:102E80009E01DD0F440B550B60E47FE180E090E094
:102E90000E94E320C90142E04093C00041E040931A
:102EA000C1001092C2004093C3001092C400EFEB27
:102EB000F0E030832093D10063E070E00E94AD2009
:102EC00070836093CF00DF91CF910895CF93DF930C
:102ED00000D000D0CDB7DEB79091280399838A83C4
:102EE0006B831C820E94B70A24E030E0AE014F5F82
:102EF0005F4F61E00E94830A0F900F900F900F9038
:102F0000DF91CF910895FC0180913902811103C0B6
:102F10008FEF9FEF08959FB7F89482E08093E900C8
:102F20002091F20030E01216130614F421E030E094
:102F30002115310559F0289884E680933802809154
:102F4000F10080838091F200882319F09FBFC901AE
:102F500008958BE68093E800F9CFF8941092C000B2
:102F600081E08093C1001092C2001092C3001092C1
:102F7000C400EFEBF0E083E0808380E28093D10037
:102F800010821092BF001092BE0084E08093720005
:102F90007894E5E3F3E082E080831482818160E04D
:102FA0000C94B3098F929F92AF92BF920F931F938D
:102FB000CF93DF93CDB7DEB7A1970FB6F894DEBFFE
:102FC0000FBECDBF19A2423008F44AE08E010F5D5A
:102FD0001F4F842E912CA12CB12CA50194010E948D
:102FE000C120E62FB901CA0101501109EA3014F4D9
:102FF000E05D01C0E95CD801EC93232B242B252B49
:1030000061F7B80188ED92E00E94D10DA1960FB64C
:10301000F894DEBF0FBECDBFDF91CF911F910F910E
:10302000BF90AF909F908F900895CF92DF92EF92D4
:10303000FF92CF93DF936B017C01E091D802F09176
:10304000D9020190F081E02D6DE288ED92E00995C2
:10305000EC0166277727CB016C197D098E099F0942
:103060004AE00E94D2178C0F9D1FDF91CF91FF90F5
:10307000EF90DF90CF900895CF93DF93BC01990F2D
:10308000880B990B97FF03C00E94151803C04AE0F4
:103090000E94D217EC016BEF71E088ED92E00E9484
:1030A000D10D8C0F9D1FDF91CF910895BC0188ED4C
:1030B00092E00C94D10DCF93DF93BC0188ED92E0A8
:1030C0000E94D10DEC016BEF71E088ED92E00E945F
:1030D000D10D8C0F9D1FDF91CF9108958F929F92FC
:1030E000AF92BF92CF92DF92EF92FF920F931F9316
:1030F000CF93DF93DB01CD91DC91DC011C96ED9148
:10310000FC911D97CE17DF070CF04AC0FE01EE0FB1
:10311000FF1F1A968D919C911B97E80FF91F8080D5
:103120009180C170DD27B1E0CB27209719F404E628
:1031300010E002C00CE91FEF79015A016B01020F88
:10314000131FB801C4010E94BC0C892B99F40E0D09
:103150001F1DB801C4010E94BC0C892B71F4B80179
:103160006E0D7F1DC4010E94BC0C892BE1F023E091
:1031700030E005C021E030E002C022E030E0F5019F
:103180008081918101968217930734F01182108219
:10319000F60180819181019691838083CE0105C0E3
:1031A00081E090E002C08FEF9FEFDF91CF911F9100
:1031B0000F91FF90EF90DF90CF90BF90AF909F90D6
:1031C0008F900895CF93DF93CDB7DEB768970FB692
:1031D000F894DEBF0FBECDBF789484B5826084BD05
:1031E00084B5816084BD85B5826085BD85B581600B
:1031F00085BD80916E00816080936E001092810089
:103200008091810082608093810080918100816043
:103210008093810080918000816080938000809104
:1032200091008260809391008091910081608093F1
:103230009100809190008160809390008091C10006
:1032400084608093C1008091C10082608093C1003E
:103250008091C10081608093C1008091C300816032
:103260008093C3008091C00082608093C0008091F1
:10327000C20081608093C20080917A008460809354
:103280007A0080917A00826080937A0080917A003F
:10329000816080937A0080917A00806880937A00C0
:1032A0001092390210920202109201028091D7000E
:1032B00081608093D70080EA8093D80089B58061CF
:1032C00089BD89B5826089BD09B400FEFDCF61E08A
:1032D00070E080E090E00E94F3098091D8008F7C3C
:1032E00080618093D8008091E000807F8093E0002F
:1032F0008091E1008E7E8093E1008DE08093E2007A
:10330000559A209AEEEFFFE7859194918B3F9C4D63
:1033100019F481E0809300020E94AD178FEF9FEFB8
:103320009093E5028093E402E0914B02F0914C020D
:1033300082E08083E0914702F09148021082E091A0
:103340004902F0914A028FEC808310925302E0917F
:103350004F02F091500286E08083E0914D02F0919F
:103360004E02808180618083E0914D02F0914E0297
:10337000808188608083E0914D02F0914E028081CF
:1033800080688083E0914D02F0914E0280818F7DB4
:1033900080838FE293E036E0380F3D8B8BE392E041
:1033A0000E94B00F892B79F08BE392E00E948E0F80
:1033B000682F88ED92E00E945A1062E971E08BE379
:1033C00092E00E94D10D6AE070E080E090E00E94FF
:1033D000F3090E942D0A0091490810914A08209192
:1033E0004B0830914C08AB01BC01401B510B620BE8
:1033F000730B8091550890915608A0E0B0E08417B7
:103400009507A607B70708F030C50E94E3150E948C
:103410007A16182F0E942D0A6093490870934A0863
:1034200080934B0890934C08112309F41EC519E0B2
:10343000212E18E0312E00E010E0D10115968C917C
:103440001597882309F408C513968D919C911497BC
:103450008130910599F034F4892B09F0EAC40BE826
:1034600011E0E7C48230910531F0039709F0E1C41F
:1034700000E811E0DEC409E711E0DBC4F10180815E
:10348000813429F0D1018C91833429F518C009E0E9
:1034900018E0F8018081823459F483819481029785
:1034A00039F487E991E00E945B1880E00E94E60D04
:1034B0000A5F1F4FF8E005341F0759F7E3CF09E013
:1034C00018E0F8018081823459F00A5F1F4FF8E05C
:1034D00005341F07B1F7D1018C918A32C9F40CC0B1
:1034E00083819481029789F78CE991E00E945B18AF
:1034F00081E00E94E60DE9CF09E018E0F801808143
:10350000833259F00A5F1F4FF8E005341F07B1F707
:10351000D1018C91843401F513C083819481029789
:1035200089F781EA91E00E945B1861E08DE00E94DA
:10353000321568E97AE380E090E00E94F309E2CF77
:1035400009E018E0F8018081823461F00A5F1F4FC2
:10355000F8E005341F07B1F7D1018C91863309F0EB
:1035600049C033C083819481029781F786EA91E054
:103570000E945B18B4E5EB2EF12C0E94AD17CE0132
:1035800001960E94BE01892B39F46AE070E080E068
:1035900090E00E94F309F3CF8BEA91E00E945B1860
:1035A0004D815E816F817885C7010E94850D64EF32
:1035B00071E080E090E00E94F309B4E0EB0EF11CB2
:1035C000E0E8EE16F104C9F6C1CFF9E0EF2EF8E01D
:1035D000FF2EA7EB8A2EA1E09A2EF701808182347C
:1035E00009F443C086E0E80EF11C95E4E91698E082
:1035F000F90699F7D1016C90862D0E94150DC82E01
:10360000D12CC6010E94C424782E082F10E0C801D6
:103610000E943C18C60101960E94C424E82EF12C99
:10362000C7010E943C18C60102960E94400D4B0142
:103630005C01B4E6EB16F10409F0B0C1862D0E94DE
:10364000000DE82EF12CC801880F991F0E949223CB
:103650005C012801A1E04A1A51089201220F331F90
:103660003C014C01C12CD12C17C18381948102975C
:1036700009F0B8CF82EB91E00E945B1810E0082DB2
:10368000BB24B3940E94AD170E94AD17CE010196E2
:103690000E94BE01892B39F46AE070E080E090E07E
:1036A0000E94F309F3CF4D805E806F807884E4E55B
:1036B000CE2ED12CA12CC6010E94400D46165706D5
:1036C0006806790669F48A2D90E08A30910580F5C4
:1036D000FC01EA5AFF4F0C94022130E017ED29C09B
:1036E000A394F4E0CF0ED11C2BE0A212E4CF102F54
:1036F0001FC030E018ED1DC031E010E81AC031E005
:1037000011E817C066EF11C06AE00FC060E086EFF5
:103710000DC060E08AE00AC0B092280360E080E05B
:103720000E9466171092280360E080E00E946617EE
:1037300030E0212F31112DC0183818F0E8E7E10FE3
:1037400029C0E12FF0E017FF0FC0E058F10981E038
:1037500090E001C0880FEA95EAF790912D03892B3C
:1037600080932D03E0E016C0EE5CFE4FE491E11182
:1037700007C081E090E090932C0380932B035FC0FF
:10378000E7FF08C080912D03826080932D03EF77BF
:1037900001C0E12F80912F038E1761F180913003DA
:1037A0008E1741F1809131038E1721F18091320300
:1037B0008E1701F1809133038E17E1F0809134036D
:1037C0008E17C1F080E090E0DC01A75DBC4F16963B
:1037D0004C911697411103C01696EC930BC00196BD
:1037E0008630910589F781E090E090932C038093D7
:1037F0002B030AC06DE273E089E293E02F8B388FD0
:103800000E94290B388D2F89311129C0183818F0E2
:1038100028E7210F24C017FF12C080E8810FA1E024
:10382000B0E002C0AA0FBB1F8A95E2F7CD018095D8
:1038300090912D03892380932D0320E010C0E12F68
:10384000F0E0EE5CFE4F2491222309F41BCF27FF0A
:1038500006C080912D038D7F80932D032F77EFE29B
:10386000F3E0222321F08081821301C0108231967F
:103870003D893E13F6CF6DE273E089E293E00E944A
:10388000290B00CFC0FE0CC0F4011082EFEFCE1A5E
:10389000DE0AFFEF8F1A9F0AC216D3069CF321C0DF
:1038A000C7012F8B388F0E94C424682FD4018C93BA
:1038B00089EB91E06E8B0E9456186E8970E080E073
:1038C00090E04AE00E94D21786EC91E00E945618E0
:1038D000C7010E943C18BFEFEB1AFB0A388D2F89F5
:1038E000D5CF7501C12CD12C52E3952EC414D5042B
:1038F0007CF5C0FC10C0D7012D913C911197929E90
:10390000C001939E900D1124845691098D939C9330
:103910008DEC91E00EC0F70120813181929EC001B3
:10392000939E900D11248C599F4F9183808380ED3D
:1039300091E00E945618D7016D917D917D0180E044
:1039400090E04AE00E94D217BFEFCB1ADB0ACECF3D
:1039500086E290E00E943317E12CF12CE016F1068C
:10396000A0F4E0FE06C0F301808191810E940F1750
:1039700005C0D3018D919C910E942117BFEFEB1AD6
:10398000FB0AE2E06E0E711CE9CF8091C0008F77D8
:103990008093C000C5010E94272449C2F3E0EF16BE
:1039A000F104E9F586E290E00E94331788E293E2A1
:1039B0000E94211784E991E10E940F17015011091B
:1039C000C12CD12C7601C39404C0CC0CDD1CEE1CA0
:1039D000FF1C0A95D2F7C114D104E104F10409F4E3
:1039E00004C1D701C60188219921AA21BB21892BB5
:1039F0008A2B8B2B39F080E392E00E9421178AE911
:103A000096E006C080E392E00E94211780E392E0F6
:103A10000E940F17F694E794D794C794DCCF24E064
:103A2000E216F104C9F588E290E00E94331780E6BF
:103A300099E00E94211788E592E00E940F1701503B
:103A40001109C12CD12C7601C39404C0CC0CDD1C0F
:103A5000EE1CFF1C0A95D2F7C114D104E104F10455
:103A600009F4E1C1D701C60188219921AA21BB210E
:103A7000892B8A2B8B2B19F080EB94E002C088E510
:103A800092E00E94211788E592E00E940F17F694B9
:103A9000E794D794C794E0CF35E0E316F10409F03A
:103AA00063C0872D90E0A0E0B0E0898B9A8BAB8B50
:103AB000BC8B83E290E00E9433178EEA9DE00E9467
:103AC000211786ED96E00E940F1700E110E0C12C4F
:103AD00080E8D82EE12CF12C2401350166247724CE
:103AE00086EF91E00E942117D301C2018C219D2114
:103AF000AE21BF21892B8A2B8B2B19F08CED94E002
:103B000002C080E991E00E940F17F694E794D794E1
:103B1000C7940150110921F700E210E0C12CD12C0B
:103B2000E12CA0E8FA2E86EF91E00E942117898906
:103B30009A89AB89BC898C219D21AE21BF21892B1B
:103B40008A2B8B2B19F08CED94E002C080E991E078
:103B50000E940F17F694E794D794C7940150110967
:103B600011F786EF91E087C097E0E916F10409F0BC
:103B70003FC086E290E00E94331788E893E10E94FC
:103B8000211788E893E10E940F1701501109C12CF9
:103B9000D12C7601C39404C0CC0CDD1CEE1CFF1CA0
:103BA0000A95D2F7C114D104E104F104F1F0D70170
:103BB000C60188219921AA21BB21892B8A2B8B2B15
:103BC00039F080E392E00E94211780E496E006C07D
:103BD00080E392E00E94211780E392E00E940F1799
:103BE000F694E794D794C794DDCF80E392E043C086
:103BF000A6E0EA16F10409F041C086E290E00E94D6
:103C0000331780E49FE10E94211780EA9FE00E9421
:103C10000F1701501109C12CD12C7601C39404C097
:103C2000CC0CDD1CEE1CFF1C0A95D2F7C114D1048C
:103C3000E104F104F1F0D701C60188219921AA21FC
:103C4000BB21892B8A2B8B2B39F088E592E00E94CF
:103C5000211780E496E006C088E592E00E942117D3
:103C600086E292E00E940F17F694E794D794C794E7
:103C7000DDCF88E592E00E942117D0C0C7010197EF
:103C8000029708F0D4C09091030281E0891B8093D1
:103C900003020150110921E030E0002E02C0220F82
:103CA000331F0A94E2F720953095A901330F660B74
:103CB000770B84229522A622B72290E0002E02C024
:103CC000880F991F0A94E2F7092E000CAA0BBB0B70
:103CD000882A992AAA2ABB2AEA94EF2809F04AC01E
:103CE000C501B4010E94FE1684E290E00E943317E1
:103CF00089E793E00E94211789E793E00E940F175C
:103D000089E793E00E942117C12CD12C7601C3943E
:103D100004C0CC0CDD1CEE1CFF1C0A95D2F7C114AC
:103D2000D104E104F10401F1D701C60188219921F0
:103D3000AA21BB21892B8A2B8B2B49F089E793E0A1
:103D40000E940F1789E793E00E94211708C089E7B6
:103D500093E00E94211789E793E00E940F17F694E1
:103D6000E794D794C794DBCF8091C0008F7780937E
:103D7000C0005DC084E290E00E9433178AE69AE0BA
:103D80000E94211789E793E00E940F178CEB91E0C6
:103D90000E9421178CEB91E00E940F17412C512CAF
:103DA0003201439404C0440C551C661C771C0A95D0
:103DB000D2F7C12CD12C7601C39441145104610473
:103DC000710461F1E4E0CE16D104E104F10419F0CC
:103DD0000CEB11E002C008E713E0D301C201882117
:103DE0009921AA21BB21892B8A2B8B2B39F0C80161
:103DF0000E942117C8010E940F1706C0C8010E9427
:103E00000F17C8010E942117FFEFCF1ADF0AEF0A30
:103E1000FF0A7694679457944794CFCF8091C0005F
:103E20008F778093C000C501B4010E94FE160FE693
:103E300011E083ED91E00E945618E091D802F091D4
:103E4000D9020190F081E02DD1016C9188ED92E0D2
:103E50000995C8010E945B18B6E02B0E311CE5E401
:103E60002E16E8E03E0609F0E8CA0E94501096CAF5
:103E7000CF92DF92EF92FF920F931F93CF93DF9336
:103E80001F92CDB7DEB7182F062FE42E862F880F8E
:103E90008E5F99830E94280F83E00E94280FF12EE5
:103EA000C12E9981D92E8C2D8F19801798F4F60187
:103EB000E7FE02C0849101C080810E94280F182F64
:103EC00080E00E94280F8123FFEFCF1ADF0A8111C3
:103ED000EACF01C081E00F90DF91CF911F910F9148
:103EE000FF90EF90DF90CF90089510923E021092D5
:103EF0003D0288EE93E0A0E0B0E080933F02909313
:103F00004002A0934102B093420229E231E0309393
:103F10003C0220933B022DEC30E03093480220938A
:103F200047022CEC30E030934A022093490228ECFF
:103F300030E030934C0220934B0229EC30E0309378
:103F40004E0220934D022AEC30E030935002209331
:103F50004F022EEC30E03093520220935102109227
:103F6000540210925502109256021092570210926B
:103F7000DB021092DA028093DC029093DD02A093C0
:103F8000DE02B093DF0289E391E09093D90280933F
:103F9000D8028FEF9FEF9093E5028093E402109296
:103FA000280380916308811113C010925E0810925B
:103FB0005D0880EC92E09093600880935F0886E350
:103FC00090E0909362088093610881E08093630899
:103FD0000E94B70AFC01A385B485109729F48DE5EA
:103FE00098E0948783870BC08D919C9111970097DF
:103FF00011F0DC01F9CF8DE598E08D939C93258538
:1040000036858091610890916208820F931F968790
:10401000858710922C0310922B0389E491E09093F2
:104020002A038093290380917108811113C0109293
:104030006C0810926B0886EF92E090936E08809364
:104040006D088FE290E09093700880936F0881E094
:10405000809371080E94B70AFC01A385B48510976C
:1040600029F48BE698E0948783870BC08D919C910F
:104070001197009711F0DC01F9CF8BE698E08D9352
:104080009C932585368580916F0890917008820FEA
:10409000931F9687858787E08093360310923803B5
:1040A0001092EF071092F3071092F2071092F407A4
:1040B00081E591E09093EE078093ED0780E090E03A
:1040C000FC01E351F84F148E10A2178E11A2069630
:1040D0008C339105A9F78BE591E09093500880937C
:1040E0004F0887E591E0909352088093510884E04F
:1040F00080935308809354088FE591E090934E0885
:1041000080934D088AE090E090935608809355087C
:1041100084EF91E0909358088093570810925B08C1
:1041200010925A081092490810924A0810924B08AF
:1041300010924C08109259080895DB018F939F93B9
:104140000E940821BF91AF91A29F800D911DA39F56
:10415000900DB29F900D11240895AA1BBB1B51E135
:1041600007C0AA1FBB1FA617B70710F0A61BB70BE7
:10417000881F991F5A95A9F780959095BC01CD018C
:104180000895A1E21A2EAA1BBB1BFD010DC0AA1F98
:10419000BB1FEE1FFF1FA217B307E407F50720F0B0
:1041A000A21BB30BE40BF50B661F771F881F991F2B
:1041B0001A9469F760957095809590959B01AC0174
:1041C000BD01CF010895052E97FB1EF400940E94B7
:1041D000FA2057FD07D00E94C12007FC03D04EF4FF
:1041E0000C94FA2050954095309521953F4F4F4FB4
:1041F0005F4F089590958095709561957F4F8F4F93
:104200009F4F0895EE0FFF1F0590F491E02D099444
:104210000E944A21A59F900DB49F900DA49F800DF0
:10422000911D112408950F93083090F0982F872F37
:10423000762F652F542F432F322F22270850F4CF8B
:10424000220F331F441F551F661F771F881F991F9A
:104250000A95B2F70F91089597FB10F8169400088D
:104260000F93083098F00850232F342F452F562FE6
:10427000672F782F892F902DF4CF059497958795E8
:104280007795679557954795379527950A95AAF796
:104290000F910895A29FB001B39FC001A39F700D1D
:1042A000811D1124911DB29F700D811D1124911D3E
:1042B00008955058BB27AA270E9471210C94EB2225
:1042C0000E94DD2238F00E94E42220F039F49F3F62
:1042D00019F426F40C94DA220EF4E095E7FB0C9422
:1042E000D422E92F0E94FC2258F3BA176207730701
:1042F0008407950720F079F4A6F50C941E230EF49C
:10430000E0950B2EBA2FA02D0B01B90190010C01E5
:10431000CA01A0011124FF27591B99F0593F50F4FD
:10432000503E68F11A16F040A22F232F342F442755
:10433000585FF3CF469537952795A795F04053954D
:10434000C9F77EF41F16BA0B620B730B840BBAF01D
:104350009150A1F0FF0FBB1F661F771F881FC2F788
:104360000EC0BA0F621F731F841F48F4879577959C
:104370006795B795F7959E3F08F0B0CF9395880F56
:1043800008F09927EE0F9795879508950E94B0221F
:1043900008F481E008950E94DF210C94EB220E9432
:1043A000E42258F00E94DD2240F029F45F3F29F01A
:1043B0000C94D42251110C941F230C94DA220E94E5
:1043C000FC2268F39923B1F3552391F3951B550B08
:1043D000BB27AA2762177307840738F09F5F5F4FD8
:1043E000220F331F441FAA1FA9F335D00E2E3AF017
:1043F000E0E832D091505040E695001CCAF72BD02F
:10440000FE2F29D0660F771F881FBB1F261737077F
:104410004807AB07B0E809F0BB0B802DBF01FF27B1
:1044200093585F4F3AF09E3F510578F00C94D42298
:104430000C941F235F3FE4F3983ED4F38695779561
:104440006795B795F7959F5FC9F7880F911D96956A
:10445000879597F90895E1E0660F771F881FBB1FC6
:10446000621773078407BA0720F0621B730B840B73
:10447000BA0BEE1F88F7E09508950E9444226894D5
:10448000B1110C941F2308950E94042388F09F57B4
:1044900098F0B92F9927B751B0F0E1F0660F771F68
:1044A000881F991F1AF0BA95C9F714C0B13091F05E
:1044B0000E941E23B1E008950C941E23672F782FCD
:1044C0008827B85F39F0B93FCCF386957795679523
:1044D000B395D9F73EF490958095709561957F4F8F
:1044E0008F4F9F4F0895E89409C097FB3EF4909535
:1044F0008095709561957F4F8F4F9F4F9923A9F0BD
:10450000F92F96E9BB279395F6958795779567954B
:10451000B795F111F8CFFAF4BB0F11F460FF1BC08F
:104520006F5F7F4F8F4F9F4F16C0882311F096E922
:1045300011C0772321F09EE8872F762F05C06623D0
:1045400071F096E8862F70E060E02AF09A95660F89
:10455000771F881FDAF7880F9695879597F9089542
:10456000990F0008550FAA0BE0E8FEEF1616170684
:10457000E807F907C0F012161306E407F50798F0EC
:10458000621B730B840B950B39F40A2661F0232B05
:10459000242B252B21F408950A2609F4A140A69581
:1045A0008FEF811D811D089597F99F6780E870E066
:1045B00060E008959FEF80EC089500240A94161699
:1045C000170618060906089500240A941216130601
:1045D000140605060895092E0394000C11F488238F
:1045E00052F0BB0F40F4BF2B11F460FF04C06F5FAB
:1045F0007F4F8F4F9F4F089557FD9058440F551F81
:1046000059F05F3F71F04795880F97FB991F61F054
:104610009F3F79F087950895121613061406551FCB
:10462000F2CF4695F1DF08C0161617061806991F37
:10463000F1CF86957105610508940895E894BB272C
:1046400066277727CB0197F908950E9438230C94A9
:10465000EB220E94DD2238F00E94E42220F0952314
:1046600011F00C94D4220C94DA2211240C941F2300
:104670000E94FC2270F3959FC1F3950F50E0551FE7
:10468000629FF001729FBB27F00DB11D639FAA27A7
:10469000F00DB11DAA1F649F6627B00DA11D661FF6
:1046A000829F2227B00DA11D621F739FB00DA11D17
:1046B000621F839FA00D611D221F749F3327A00DD1
:1046C000611D231F849F600D211D822F762F6A2F6D
:1046D00011249F5750409AF0F1F088234AF0EE0FD2
:1046E000FF1FBB1F661F771F881F91505040A9F7FF
:1046F0009E3F510580F00C94D4220C941F235F3F01
:10470000E4F3983ED4F3869577956795B795F7953A
:10471000E7959F5FC1F7FE2B880F911D96958795B2
:1047200097F90895CF93DF938230910510F482E0DA
:1047300090E0E0917B08F0917C0820E030E0C0E060
:10474000D0E0309711F14081518148175907C0F0EE
:104750004817590761F482819381209719F09B8350
:104760008A832BC090937C0880937B0826C02115F8
:10477000310519F04217530718F49A01BE01DF0101
:10478000EF010280F381E02DDCCF2115310509F125
:10479000281B390B2430310590F412968D919C9191
:1047A00013976115710521F0FB019383828304C087
:1047B00090937C0880937B08FD01329644C0FD01F4
:1047C000E20FF31F81939193225031092D933C9373
:1047D0003AC02091790830917A08232B41F4209136
:1047E00015013091160130937A08209379082091B1
:1047F0001301309114012115310541F42DB73EB755
:104800004091170150911801241B350BE091790854
:10481000F0917A08E217F307A0F42E1B3F0B28173C
:10482000390778F0AC014E5F5F4F2417350748F029
:104830004E0F5F1F50937A084093790881939193AC
:1048400002C0E0E0F0E0CF01DF91CF9108950F9337
:104850001F93CF93DF93009709F48CC0FC0132972C
:104860001382128200917B0810917C0801151105BA
:1048700081F420813181820F931F2091790830913A
:104880007A082817390779F5F0937A08E0937908C0
:1048900071C0D80140E050E0AE17BF0750F4129647
:1048A0002D913C911397AD012115310509F1D901E5
:1048B000F3CF9D01DA013383228360817181860FFA
:1048C000971F8217930769F4EC0128813981260F1D
:1048D000371F2E5F3F4F318320838A819B819383D3
:1048E0008283452B29F4F0937C08E0937B0842C037
:1048F0001396FC93EE931297ED01499159919E0105
:10490000240F351FE217F30771F480819181840F22
:10491000951F029611969C938E9382819381139694
:104920009C938E931297E0E0F0E0D80112968D915F
:104930009C911397009719F0F8018C01F6CF8D9197
:104940009C9198012E5F3F4F820F931F2091790811
:1049500030917A082817390769F4309729F41092B2
:104960007C0810927B0802C01382128210937A088E
:1049700000937908DF91CF911F910F91089581E005
:1049800090E0F8940C94DA24F999FECF92BD81BDA1
:10499000F89A992780B50895262FF999FECF1FBA66
:1049A00092BD81BD20BD0FB6F894FA9AF99A0FBE58
:0849B00001960895F894FFCF71
:1049B80000C18081000000FFFFFFFF00E100000050
:1049C80000000000007D088000000000009B082512
:1049D80009E508C20800000000E70F630FB00F8E5A
:1049E8000FA20F2E10000000005A1018127B10BBE7
:1049F800109710701000000000360B630F000000C5
:104A080000EF0970096D0908050403020A09063157
:104A180032334134353642373839432A302344203B
:104A2800505245535345442E0020484F4C442E00C5
:104A38002052454C45415345442E002049444C459D
:104A48002E002B2B2B0A000A422B41000A422B4333
:104A5800000A2A2B23000A422B440073746F7265E4
:104A680064000A422B36005800454550524F4D20ED
:104A78005265616420002066726F6D2000206D0011
:104A88002073004B65792000454550524F4D205703
:104A980072697465200020746F2000310032003381
:104AA80000524157003400350037000D0A00090054
:00000001FF
